{
  "contractName": "Cryptonote",
  "abi": [
    {
      "inputs": [],
      "payable": false,
      "stateMutability": "nonpayable",
      "type": "constructor"
    },
    {
      "anonymous": false,
      "inputs": [
        {
          "indexed": false,
          "internalType": "uint256",
          "name": "id",
          "type": "uint256"
        },
        {
          "indexed": false,
          "internalType": "string",
          "name": "text",
          "type": "string"
        }
      ],
      "name": "NoteCreated",
      "type": "event"
    },
    {
      "constant": true,
      "inputs": [
        {
          "internalType": "address",
          "name": "",
          "type": "address"
        },
        {
          "internalType": "uint256",
          "name": "",
          "type": "uint256"
        }
      ],
      "name": "notes",
      "outputs": [
        {
          "internalType": "uint256",
          "name": "id",
          "type": "uint256"
        },
        {
          "internalType": "string",
          "name": "text",
          "type": "string"
        }
      ],
      "payable": false,
      "stateMutability": "view",
      "type": "function"
    },
    {
      "constant": true,
      "inputs": [
        {
          "internalType": "address",
          "name": "",
          "type": "address"
        }
      ],
      "name": "notesCount",
      "outputs": [
        {
          "internalType": "uint256",
          "name": "",
          "type": "uint256"
        }
      ],
      "payable": false,
      "stateMutability": "view",
      "type": "function"
    },
    {
      "constant": false,
      "inputs": [
        {
          "internalType": "string",
          "name": "_content",
          "type": "string"
        }
      ],
      "name": "createNotes",
      "outputs": [],
      "payable": false,
      "stateMutability": "nonpayable",
      "type": "function"
    },
    {
      "constant": false,
      "inputs": [
        {
          "internalType": "uint256",
          "name": "_noteId",
          "type": "uint256"
        }
      ],
      "name": "deleteNote",
      "outputs": [],
      "payable": false,
      "stateMutability": "nonpayable",
      "type": "function"
    },
    {
      "constant": true,
      "inputs": [],
      "name": "getAllNotes",
      "outputs": [
        {
          "components": [
            {
              "internalType": "uint256",
              "name": "id",
              "type": "uint256"
            },
            {
              "internalType": "string",
              "name": "text",
              "type": "string"
            }
          ],
          "internalType": "struct Cryptonote.Note[]",
          "name": "",
          "type": "tuple[]"
        }
      ],
      "payable": false,
      "stateMutability": "view",
      "type": "function"
    },
    {
      "constant": false,
      "inputs": [
        {
          "internalType": "address",
          "name": "to",
          "type": "address"
        },
        {
          "internalType": "uint256",
          "name": "noteId",
          "type": "uint256"
        }
      ],
      "name": "_shareNotes",
      "outputs": [
        {
          "internalType": "bool",
          "name": "",
          "type": "bool"
        }
      ],
      "payable": false,
      "stateMutability": "nonpayable",
      "type": "function"
    }
  ],
  "bytecode": "0x60806040523480156200001157600080fd5b5060408051808201909152600b81526a12195a9bc8135a58da185b60aa1b602082015262000048906001600160e01b036200004e16565b6200026a565b33600081815260016020818152604080842054815180830183528181528084018881529686528584528286208287528452919094208151815594518051949591949193620000a39390850192910190620000fe565b50503360009081526001602081905260409182902080549091019055517f6550444ada089c308baa525c38c9b134b73b5b6a724c2276144d6b9ecd9f6fa09150620000f29083908590620001f4565b60405180910390a15050565b828054600181600116156101000203166002900490600052602060002090601f016020900481019282601f106200014157805160ff191683800117855562000171565b8280016001018555821562000171579182015b828111156200017157825182559160200191906001019062000154565b506200017f92915062000183565b5090565b620001a091905b808211156200017f57600081556001016200018a565b90565b6000620001b08262000220565b620001bc818562000224565b9350620001ce8185602086016200022d565b620001d98162000260565b9093019392505050565b620001ee81620001a0565b82525050565b60408101620002048285620001e3565b8181036020830152620002188184620001a3565b949350505050565b5190565b90815260200190565b60005b838110156200024a57818101518382015260200162000230565b838111156200025a576000848401525b50505050565b601f01601f191690565b6109cc806200027a6000396000f3fe608060405234801561001057600080fd5b50600436106100625760003560e01c806318bd235e14610067578063c47177f414610090578063cae9311f146100a5578063de8f430c146100c5578063e0b117ff146100da578063fe193a93146100fb575b600080fd5b61007a6100753660046106c8565b61010e565b604051610087919061086c565b60405180910390f35b6100a361009e366004610737565b61024e565b005b6100b86100b33660046106a2565b610278565b604051610087919061087a565b6100cd61028a565b604051610087919061085b565b6100ed6100e83660046106c8565b6103eb565b604051610087929190610888565b6100a3610109366004610702565b610496565b336000818152602081815260408083208584528252808320815180830183526001600160a01b0388168552600180855283862054825280830180548551600293821615610100026000190190911692909204601f8101879004870283018701909552848252959695929491938483019391928301828280156101d15780601f106101a6576101008083540402835291602001916101d1565b820191906000526020600020905b8154815290600101906020018083116101b457829003601f168201915b5050509190925250506001600160a01b0386166000908152602081815260408083206001808452828520548552908352922083518155838201518051919361021f9390850192910190610542565b5050506001600160a01b0385166000908152600160208190526040909120805482019055925050505b92915050565b336000908152602081815260408083208484529091528120610275916001909101906105c0565b50565b60016020526000908152604090205481565b60608060016000336001600160a01b03166001600160a01b03168152602001908152602001600020546040519080825280602002602001820160405280156102ec57816020015b6102d9610604565b8152602001906001900390816102d15790505b50905060005b336000908152600160205260409020548110156103e457336000908152602081815260408083208484528252918290208251808401845281548152600180830180548651600293821615610100026000190190911692909204601f81018690048602830186019096528582529294919385938582019390918301828280156103bb5780601f10610390576101008083540402835291602001916103bb565b820191906000526020600020905b81548152906001019060200180831161039e57829003601f168201915b5050505050815250508383815181106103d057fe5b6020908102919091010152506001016102f2565b5090505b90565b60006020818152928152604080822084529181528190208054600180830180548551600293821615610100026000190190911692909204601f810187900487028301870190955284825291949293909283018282801561048c5780601f106104615761010080835404028352916020019161048c565b820191906000526020600020905b81548152906001019060200180831161046f57829003601f168201915b5050505050905082565b336000818152600160208181526040808420548151808301835281815280840188815296865285845282862082875284529190942081518155945180519495919491936104e99390850192910190610542565b50503360009081526001602081905260409182902080549091019055517f6550444ada089c308baa525c38c9b134b73b5b6a724c2276144d6b9ecd9f6fa091506105369083908590610888565b60405180910390a15050565b828054600181600116156101000203166002900490600052602060002090601f016020900481019282601f1061058357805160ff19168380011785556105b0565b828001600101855582156105b0579182015b828111156105b0578251825591602001919060010190610595565b506105bc92915061061e565b5090565b50805460018160011615610100020316600290046000825580601f106105e65750610275565b601f016020900490600052602060002090810190610275919061061e565b604051806040016040528060008152602001606081525090565b6103e891905b808211156105bc5760008155600101610624565b80356102488161096c565b600082601f83011261065457600080fd5b8135610667610662826108cf565b6108a8565b9150808252602083016020830185838301111561068357600080fd5b61068e838284610926565b50505092915050565b803561024881610980565b6000602082840312156106b457600080fd5b60006106c08484610638565b949350505050565b600080604083850312156106db57600080fd5b60006106e78585610638565b92505060206106f885828601610697565b9150509250929050565b60006020828403121561071457600080fd5b813567ffffffffffffffff81111561072b57600080fd5b6106c084828501610643565b60006020828403121561074957600080fd5b60006106c08484610697565b6000610761838361081d565b9392505050565b6000610773826108fd565b61077d8185610901565b93508360208202850161078f856108f7565b8060005b858110156107c957848403895281516107ac8582610755565b94506107b7836108f7565b60209a909a0199925050600101610793565b5091979650505050505050565b6107df81610915565b82525050565b60006107f0826108fd565b6107fa8185610901565b935061080a818560208601610932565b61081381610962565b9093019392505050565b805160009060408401906108318582610852565b506020830151848203602086015261084982826107e5565b95945050505050565b6107df816103e8565b602080825281016107618184610768565b6020810161024882846107d6565b602081016102488284610852565b604081016108968285610852565b81810360208301526106c081846107e5565b60405181810167ffffffffffffffff811182821017156108c757600080fd5b604052919050565b600067ffffffffffffffff8211156108e657600080fd5b506020601f91909101601f19160190565b60200190565b5190565b90815260200190565b60006102488261091a565b151590565b6001600160a01b031690565b82818337506000910152565b60005b8381101561094d578181015183820152602001610935565b8381111561095c576000848401525b50505050565b601f01601f191690565b6109758161090a565b811461027557600080fd5b610975816103e856fea365627a7a723158205d7cb0ca4b6ff484353a893ae5dfb74c2ce16b54de48eeadca19a7fa0ed5e1d16c6578706572696d656e74616cf564736f6c63430005100040",
  "source": "pragma solidity >=0.5.0 <0.9.0;\npragma experimental ABIEncoderV2;\ncontract Cryptonote {\n\n    struct Note{\n        uint id;\n        string text;\n    }\n\n    mapping(address => mapping(uint => Note)) public notes;\n    mapping(address => uint) public notesCount;\n\n    event NoteCreated(\n        uint id,\n        string text\n    );\n    constructor() public{\n        createNotes(\"Hejo Michal\");\n    } \n    \n    function createNotes(string memory _content) public {\n        uint noteCount = notesCount[msg.sender];\n        notes[msg.sender][noteCount] = Note(noteCount,_content);\n        notesCount[msg.sender]++;\n        emit NoteCreated(noteCount, _content);\n    }\n    function deleteNote(uint _noteId) public {\n        delete notes[msg.sender][_noteId].text;\n    }\n    \n    function getAllNotes() public view returns (Note[] memory){\n      Note[] memory allNotes = new Note[](notesCount[msg.sender]);\n      for (uint i = 0; i < notesCount[msg.sender]; i++) {\n          Note storage currentNote = notes[msg.sender][i];\n          allNotes[i] = currentNote;\n      }\n      return allNotes;\n    }\n\n    function _shareNotes(address to, uint noteId) public returns (bool) {\n        address noteOwner = msg.sender;\n        Note storage note = notes[noteOwner][noteId];\n        notes[to][notesCount[to]] = Note(notesCount[to],note.text);\n        notesCount[to]++;\n        return true;\n    }\n\n\n}\n\n\n\n",
  "sourcePath": "/Users/michalsukiennik/Desktop/cryptonote/contracts/Cryptonote.sol",
  "compiler": {
    "name": "solc",
    "version": "0.5.16+commit.9c3226ce.Emscripten.clang"
  },
  "schemaVersion": "3.4.10",
  "updatedAt": "2022-10-30T06:43:13.268Z",
  "networkType": "ethereum",
  "devdoc": {
    "methods": {}
  },
  "userdoc": {
    "methods": {}
  }
}