{
  "contractName": "Cryptonote",
  "abi": [
    {
      "inputs": [],
      "payable": false,
      "stateMutability": "nonpayable",
      "type": "constructor"
    },
    {
      "anonymous": false,
      "inputs": [
        {
          "indexed": false,
          "internalType": "uint256",
          "name": "id",
          "type": "uint256"
        },
        {
          "indexed": false,
          "internalType": "string",
          "name": "text",
          "type": "string"
        }
      ],
      "name": "NoteCreated",
      "type": "event"
    },
    {
      "anonymous": false,
      "inputs": [
        {
          "indexed": false,
          "internalType": "uint256",
          "name": "id",
          "type": "uint256"
        }
      ],
      "name": "NoteEdited",
      "type": "event"
    },
    {
      "constant": true,
      "inputs": [
        {
          "internalType": "address",
          "name": "",
          "type": "address"
        },
        {
          "internalType": "uint256",
          "name": "",
          "type": "uint256"
        }
      ],
      "name": "notes",
      "outputs": [
        {
          "internalType": "uint256",
          "name": "id",
          "type": "uint256"
        },
        {
          "internalType": "string",
          "name": "text",
          "type": "string"
        }
      ],
      "payable": false,
      "stateMutability": "view",
      "type": "function"
    },
    {
      "constant": true,
      "inputs": [
        {
          "internalType": "address",
          "name": "",
          "type": "address"
        }
      ],
      "name": "notesCount",
      "outputs": [
        {
          "internalType": "uint256",
          "name": "",
          "type": "uint256"
        }
      ],
      "payable": false,
      "stateMutability": "view",
      "type": "function"
    },
    {
      "constant": false,
      "inputs": [
        {
          "internalType": "string",
          "name": "_content",
          "type": "string"
        }
      ],
      "name": "createNotes",
      "outputs": [],
      "payable": false,
      "stateMutability": "nonpayable",
      "type": "function"
    },
    {
      "constant": false,
      "inputs": [
        {
          "internalType": "uint256",
          "name": "_noteId",
          "type": "uint256"
        }
      ],
      "name": "deleteNote",
      "outputs": [],
      "payable": false,
      "stateMutability": "nonpayable",
      "type": "function"
    },
    {
      "constant": true,
      "inputs": [],
      "name": "getAllNotes",
      "outputs": [
        {
          "components": [
            {
              "internalType": "uint256",
              "name": "id",
              "type": "uint256"
            },
            {
              "internalType": "string",
              "name": "text",
              "type": "string"
            }
          ],
          "internalType": "struct Cryptonote.Note[]",
          "name": "",
          "type": "tuple[]"
        }
      ],
      "payable": false,
      "stateMutability": "view",
      "type": "function"
    },
    {
      "constant": false,
      "inputs": [
        {
          "internalType": "address",
          "name": "to",
          "type": "address"
        },
        {
          "internalType": "uint256",
          "name": "noteId",
          "type": "uint256"
        }
      ],
      "name": "_shareNotes",
      "outputs": [
        {
          "internalType": "bool",
          "name": "",
          "type": "bool"
        }
      ],
      "payable": false,
      "stateMutability": "nonpayable",
      "type": "function"
    },
    {
      "constant": false,
      "inputs": [
        {
          "internalType": "uint256",
          "name": "_noteId",
          "type": "uint256"
        },
        {
          "internalType": "string",
          "name": "_text",
          "type": "string"
        }
      ],
      "name": "editNote",
      "outputs": [],
      "payable": false,
      "stateMutability": "nonpayable",
      "type": "function"
    }
  ],
  "bytecode": "0x608060405234801561001057600080fd5b50610a9e806100206000396000f3fe608060405234801561001057600080fd5b506004361061007d5760003560e01c8063cae9311f1161005b578063cae9311f146100d3578063de8f430c146100f3578063e0b117ff14610108578063fe193a93146101295761007d565b806318bd235e1461008257806365bed09a146100ab578063c47177f4146100c0575b600080fd5b610095610090366004610752565b61013c565b6040516100a2919061093e565b60405180910390f35b6100be6100b93660046107df565b61027c565b005b6100be6100ce3660046107c1565b6102e4565b6100e66100e136600461072c565b61030e565b6040516100a2919061094c565b6100fb610320565b6040516100a2919061092d565b61011b610116366004610752565b610481565b6040516100a292919061095a565b6100be61013736600461078c565b61052c565b336000818152602081815260408083208584528252808320815180830183526001600160a01b0388168552600180855283862054825280830180548551600293821615610100026000190190911692909204601f8101879004870283018701909552848252959695929491938483019391928301828280156101ff5780601f106101d4576101008083540402835291602001916101ff565b820191906000526020600020905b8154815290600101906020018083116101e257829003601f168201915b5050509190925250506001600160a01b0386166000908152602081815260408083206001808452828520548552908352922083518155838201518051919361024d93908501929101906105cc565b5050506001600160a01b0385166000908152600160208190526040909120805482019055925050505b92915050565b33600090815260208181526040808320858452825290912082516102a8926001909201918401906105cc565b507f7c32ea6b220490c87f47c0eed62a9d03ca974af4db406ddfe7ced9b5240bf703826040516102d8919061094c565b60405180910390a15050565b33600090815260208181526040808320848452909152812061030b9160019091019061064a565b50565b60016020526000908152604090205481565b60608060016000336001600160a01b03166001600160a01b031681526020019081526020016000205460405190808252806020026020018201604052801561038257816020015b61036f61068e565b8152602001906001900390816103675790505b50905060005b3360009081526001602052604090205481101561047a57336000908152602081815260408083208484528252918290208251808401845281548152600180830180548651600293821615610100026000190190911692909204601f81018690048602830186019096528582529294919385938582019390918301828280156104515780601f1061042657610100808354040283529160200191610451565b820191906000526020600020905b81548152906001019060200180831161043457829003601f168201915b50505050508152505083838151811061046657fe5b602090810291909101015250600101610388565b5090505b90565b60006020818152928152604080822084529181528190208054600180830180548551600293821615610100026000190190911692909204601f81018790048702830187019095528482529194929390928301828280156105225780601f106104f757610100808354040283529160200191610522565b820191906000526020600020905b81548152906001019060200180831161050557829003601f168201915b5050505050905082565b3360008181526001602081815260408084205481518083018352818152808401888152968652858452828620828752845291909420815181559451805194959194919361057f93908501929101906105cc565b50503360009081526001602081905260409182902080549091019055517f6550444ada089c308baa525c38c9b134b73b5b6a724c2276144d6b9ecd9f6fa091506102d8908390859061095a565b828054600181600116156101000203166002900490600052602060002090601f016020900481019282601f1061060d57805160ff191683800117855561063a565b8280016001018555821561063a579182015b8281111561063a57825182559160200191906001019061061f565b506106469291506106a8565b5090565b50805460018160011615610100020316600290046000825580601f10610670575061030b565b601f01602090049060005260206000209081019061030b91906106a8565b604051806040016040528060008152602001606081525090565b61047e91905b8082111561064657600081556001016106ae565b803561027681610a3e565b600082601f8301126106de57600080fd5b81356106f16106ec826109a1565b61097a565b9150808252602083016020830185838301111561070d57600080fd5b6107188382846109f8565b50505092915050565b803561027681610a52565b60006020828403121561073e57600080fd5b600061074a84846106c2565b949350505050565b6000806040838503121561076557600080fd5b600061077185856106c2565b925050602061078285828601610721565b9150509250929050565b60006020828403121561079e57600080fd5b813567ffffffffffffffff8111156107b557600080fd5b61074a848285016106cd565b6000602082840312156107d357600080fd5b600061074a8484610721565b600080604083850312156107f257600080fd5b60006107fe8585610721565b925050602083013567ffffffffffffffff81111561081b57600080fd5b610782858286016106cd565b600061083383836108ef565b9392505050565b6000610845826109cf565b61084f81856109d3565b935083602082028501610861856109c9565b8060005b8581101561089b578484038952815161087e8582610827565b9450610889836109c9565b60209a909a0199925050600101610865565b5091979650505050505050565b6108b1816109e7565b82525050565b60006108c2826109cf565b6108cc81856109d3565b93506108dc818560208601610a04565b6108e581610a34565b9093019392505050565b805160009060408401906109038582610924565b506020830151848203602086015261091b82826108b7565b95945050505050565b6108b18161047e565b60208082528101610833818461083a565b6020810161027682846108a8565b602081016102768284610924565b604081016109688285610924565b818103602083015261074a81846108b7565b60405181810167ffffffffffffffff8111828210171561099957600080fd5b604052919050565b600067ffffffffffffffff8211156109b857600080fd5b506020601f91909101601f19160190565b60200190565b5190565b90815260200190565b6000610276826109ec565b151590565b6001600160a01b031690565b82818337506000910152565b60005b83811015610a1f578181015183820152602001610a07565b83811115610a2e576000848401525b50505050565b601f01601f191690565b610a47816109dc565b811461030b57600080fd5b610a478161047e56fea365627a7a7231582062b3c695f52f561267b08b469731964882d86549ca1bce368db5dca60914fd926c6578706572696d656e74616cf564736f6c63430005100040",
  "source": "pragma solidity >=0.5.0 <0.9.0;\npragma experimental ABIEncoderV2;\ncontract Cryptonote {\n\n    struct Note{\n        uint id;\n        string text;\n    }\n\n    mapping(address => mapping(uint => Note)) public notes;\n    mapping(address => uint) public notesCount;\n\n    event NoteCreated(\n        uint id,\n        string text\n    );\n\n    event NoteEdited(\n        uint id\n    );\n    constructor() public{\n\n    } \n    \n    function createNotes(string memory _content) public {\n        uint noteCount = notesCount[msg.sender];\n        notes[msg.sender][noteCount] = Note(noteCount,_content);\n        notesCount[msg.sender]++;\n        emit NoteCreated(noteCount, _content);\n    }\n    function deleteNote(uint _noteId) public {\n        delete notes[msg.sender][_noteId].text;\n    }\n    \n    function getAllNotes() public view returns (Note[] memory){\n      Note[] memory allNotes = new Note[](notesCount[msg.sender]);\n      for (uint i = 0; i < notesCount[msg.sender]; i++) {\n          Note storage currentNote = notes[msg.sender][i];\n          allNotes[i] = currentNote;\n      }\n      return allNotes;\n    }\n\n    function _shareNotes(address to, uint noteId) public returns (bool) {\n        address noteOwner = msg.sender;\n        Note storage note = notes[noteOwner][noteId];\n        notes[to][notesCount[to]] = Note(notesCount[to],note.text);\n        notesCount[to]++;\n        return true;\n    }\n\n    //Nie wiem czy to działa bo w sumie tylko to napisałem i spanko poszłem :) \n    // Działa :)\n    function editNote(uint _noteId, string memory _text) public {\n        notes[msg.sender][_noteId].text = _text;\n        emit NoteEdited(_noteId); \n    }\n\n\n}\n\n\n\n",
  "sourcePath": "/Users/michalsukiennik/Desktop/cryptonote/contracts/Cryptonote.sol",
  "compiler": {
    "name": "solc",
    "version": "0.5.16+commit.9c3226ce.Emscripten.clang"
  },
  "schemaVersion": "3.4.10",
  "updatedAt": "2022-11-01T07:18:52.607Z",
  "networkType": "ethereum",
  "devdoc": {
    "methods": {}
  },
  "userdoc": {
    "methods": {}
  }
}