{
  "contractName": "Cryptonote",
  "abi": [
    {
      "inputs": [],
      "payable": false,
      "stateMutability": "nonpayable",
      "type": "constructor"
    },
    {
      "anonymous": false,
      "inputs": [
        {
          "indexed": false,
          "internalType": "uint256",
          "name": "id",
          "type": "uint256"
        },
        {
          "indexed": false,
          "internalType": "string",
          "name": "text",
          "type": "string"
        }
      ],
      "name": "NoteCreated",
      "type": "event"
    },
    {
      "anonymous": false,
      "inputs": [
        {
          "indexed": false,
          "internalType": "uint256",
          "name": "id",
          "type": "uint256"
        }
      ],
      "name": "NoteDeleted",
      "type": "event"
    },
    {
      "anonymous": false,
      "inputs": [
        {
          "indexed": false,
          "internalType": "uint256",
          "name": "id",
          "type": "uint256"
        }
      ],
      "name": "NoteEdited",
      "type": "event"
    },
    {
      "constant": true,
      "inputs": [
        {
          "internalType": "address",
          "name": "",
          "type": "address"
        },
        {
          "internalType": "uint256",
          "name": "",
          "type": "uint256"
        }
      ],
      "name": "notes",
      "outputs": [
        {
          "internalType": "uint256",
          "name": "id",
          "type": "uint256"
        },
        {
          "internalType": "string",
          "name": "text",
          "type": "string"
        }
      ],
      "payable": false,
      "stateMutability": "view",
      "type": "function"
    },
    {
      "constant": true,
      "inputs": [
        {
          "internalType": "address",
          "name": "",
          "type": "address"
        }
      ],
      "name": "notesCount",
      "outputs": [
        {
          "internalType": "uint256",
          "name": "",
          "type": "uint256"
        }
      ],
      "payable": false,
      "stateMutability": "view",
      "type": "function"
    },
    {
      "constant": false,
      "inputs": [
        {
          "internalType": "string",
          "name": "_content",
          "type": "string"
        }
      ],
      "name": "createNotes",
      "outputs": [],
      "payable": false,
      "stateMutability": "nonpayable",
      "type": "function"
    },
    {
      "constant": false,
      "inputs": [
        {
          "internalType": "uint256",
          "name": "_noteId",
          "type": "uint256"
        }
      ],
      "name": "deleteNote",
      "outputs": [],
      "payable": false,
      "stateMutability": "nonpayable",
      "type": "function"
    },
    {
      "constant": true,
      "inputs": [],
      "name": "getAllNotes",
      "outputs": [
        {
          "components": [
            {
              "internalType": "uint256",
              "name": "id",
              "type": "uint256"
            },
            {
              "internalType": "string",
              "name": "text",
              "type": "string"
            }
          ],
          "internalType": "struct Cryptonote.Note[]",
          "name": "",
          "type": "tuple[]"
        }
      ],
      "payable": false,
      "stateMutability": "view",
      "type": "function"
    },
    {
      "constant": false,
      "inputs": [
        {
          "internalType": "address",
          "name": "to",
          "type": "address"
        },
        {
          "internalType": "uint256",
          "name": "noteId",
          "type": "uint256"
        }
      ],
      "name": "_shareNotes",
      "outputs": [
        {
          "internalType": "bool",
          "name": "",
          "type": "bool"
        }
      ],
      "payable": false,
      "stateMutability": "nonpayable",
      "type": "function"
    },
    {
      "constant": false,
      "inputs": [
        {
          "internalType": "uint256",
          "name": "_noteId",
          "type": "uint256"
        },
        {
          "internalType": "string",
          "name": "_text",
          "type": "string"
        }
      ],
      "name": "editNote",
      "outputs": [],
      "payable": false,
      "stateMutability": "nonpayable",
      "type": "function"
    }
  ],
  "bytecode": "0x608060405234801561001057600080fd5b50610ad8806100206000396000f3fe608060405234801561001057600080fd5b506004361061007d5760003560e01c8063cae9311f1161005b578063cae9311f146100d3578063de8f430c146100f3578063e0b117ff14610108578063fe193a93146101295761007d565b806318bd235e1461008257806365bed09a146100ab578063c47177f4146100c0575b600080fd5b61009561009036600461078c565b61013c565b6040516100a29190610978565b60405180910390f35b6100be6100b9366004610819565b61027c565b005b6100be6100ce3660046107fb565b6102e4565b6100e66100e1366004610766565b610345565b6040516100a29190610986565b6100fb610357565b6040516100a29190610967565b61011b61011636600461078c565b6104b8565b6040516100a2929190610994565b6100be6101373660046107c6565b610563565b336000818152602081815260408083208584528252808320815180830183526001600160a01b0388168552600180855283862054825280830180548551600293821615610100026000190190911692909204601f8101879004870283018701909552848252959695929491938483019391928301828280156101ff5780601f106101d4576101008083540402835291602001916101ff565b820191906000526020600020905b8154815290600101906020018083116101e257829003601f168201915b5050509190925250506001600160a01b0386166000908152602081815260408083206001808452828520548552908352922083518155838201518051919361024d9390850192910190610603565b5050506001600160a01b0385166000908152600160208190526040909120805482019055925050505b92915050565b33600090815260208181526040808320858452825290912082516102a892600190920191840190610603565b507f7c32ea6b220490c87f47c0eed62a9d03ca974af4db406ddfe7ced9b5240bf703826040516102d89190610986565b60405180910390a15050565b33600090815260208181526040808320848452909152812061030b91600190910190610681565b7f89af6ba62ab348dc535a3187c267090f834c868a3820cd552a7110c3dc3eedb88160405161033a9190610986565b60405180910390a150565b60016020526000908152604090205481565b60608060016000336001600160a01b03166001600160a01b03168152602001908152602001600020546040519080825280602002602001820160405280156103b957816020015b6103a66106c8565b81526020019060019003908161039e5790505b50905060005b336000908152600160205260409020548110156104b157336000908152602081815260408083208484528252918290208251808401845281548152600180830180548651600293821615610100026000190190911692909204601f81018690048602830186019096528582529294919385938582019390918301828280156104885780601f1061045d57610100808354040283529160200191610488565b820191906000526020600020905b81548152906001019060200180831161046b57829003601f168201915b50505050508152505083838151811061049d57fe5b6020908102919091010152506001016103bf565b5090505b90565b60006020818152928152604080822084529181528190208054600180830180548551600293821615610100026000190190911692909204601f81018790048702830187019095528482529194929390928301828280156105595780601f1061052e57610100808354040283529160200191610559565b820191906000526020600020905b81548152906001019060200180831161053c57829003601f168201915b5050505050905082565b336000818152600160208181526040808420548151808301835281815280840188815296865285845282862082875284529190942081518155945180519495919491936105b69390850192910190610603565b50503360009081526001602081905260409182902080549091019055517f6550444ada089c308baa525c38c9b134b73b5b6a724c2276144d6b9ecd9f6fa091506102d89083908590610994565b828054600181600116156101000203166002900490600052602060002090601f016020900481019282601f1061064457805160ff1916838001178555610671565b82800160010185558215610671579182015b82811115610671578251825591602001919060010190610656565b5061067d9291506106e2565b5090565b50805460018160011615610100020316600290046000825580601f106106a757506106c5565b601f0160209004906000526020600020908101906106c591906106e2565b50565b604051806040016040528060008152602001606081525090565b6104b591905b8082111561067d57600081556001016106e8565b803561027681610a78565b600082601f83011261071857600080fd5b813561072b610726826109db565b6109b4565b9150808252602083016020830185838301111561074757600080fd5b610752838284610a32565b50505092915050565b803561027681610a8c565b60006020828403121561077857600080fd5b600061078484846106fc565b949350505050565b6000806040838503121561079f57600080fd5b60006107ab85856106fc565b92505060206107bc8582860161075b565b9150509250929050565b6000602082840312156107d857600080fd5b813567ffffffffffffffff8111156107ef57600080fd5b61078484828501610707565b60006020828403121561080d57600080fd5b6000610784848461075b565b6000806040838503121561082c57600080fd5b6000610838858561075b565b925050602083013567ffffffffffffffff81111561085557600080fd5b6107bc85828601610707565b600061086d8383610929565b9392505050565b600061087f82610a09565b6108898185610a0d565b93508360208202850161089b85610a03565b8060005b858110156108d557848403895281516108b88582610861565b94506108c383610a03565b60209a909a019992505060010161089f565b5091979650505050505050565b6108eb81610a21565b82525050565b60006108fc82610a09565b6109068185610a0d565b9350610916818560208601610a3e565b61091f81610a6e565b9093019392505050565b8051600090604084019061093d858261095e565b506020830151848203602086015261095582826108f1565b95945050505050565b6108eb816104b5565b6020808252810161086d8184610874565b6020810161027682846108e2565b60208101610276828461095e565b604081016109a2828561095e565b818103602083015261078481846108f1565b60405181810167ffffffffffffffff811182821017156109d357600080fd5b604052919050565b600067ffffffffffffffff8211156109f257600080fd5b506020601f91909101601f19160190565b60200190565b5190565b90815260200190565b600061027682610a26565b151590565b6001600160a01b031690565b82818337506000910152565b60005b83811015610a59578181015183820152602001610a41565b83811115610a68576000848401525b50505050565b601f01601f191690565b610a8181610a16565b81146106c557600080fd5b610a81816104b556fea365627a7a72315820c09779e1ec895e4a0ce4dad755be63439c29ae956e3161b6e1b50a14627d82736c6578706572696d656e74616cf564736f6c63430005100040",
  "source": "pragma solidity >=0.5.0 <0.9.0;\npragma experimental ABIEncoderV2;\ncontract Cryptonote {\n\n    struct Note{\n        uint id;\n        string text;\n    }\n\n    mapping(address => mapping(uint => Note)) public notes;\n    mapping(address => uint) public notesCount;\n\n    event NoteCreated(\n        uint id,\n        string text\n    );\n\n    event NoteEdited(\n        uint id\n    );\n    event NoteDeleted(\n        uint id\n    );\n    constructor() public{\n\n    } \n    \n    function createNotes(string memory _content) public {\n        uint noteCount = notesCount[msg.sender];\n        notes[msg.sender][noteCount] = Note(noteCount,_content);\n        notesCount[msg.sender]++;\n        emit NoteCreated(noteCount, _content);\n    }\n    function deleteNote(uint _noteId) public {\n        delete notes[msg.sender][_noteId].text;\n        emit NoteDeleted(_noteId);\n    }\n    \n    function getAllNotes() public view returns (Note[] memory){\n      Note[] memory allNotes = new Note[](notesCount[msg.sender]);\n      for (uint i = 0; i < notesCount[msg.sender]; i++) {\n          Note storage currentNote = notes[msg.sender][i];\n          allNotes[i] = currentNote;\n      }\n      return allNotes;\n    }\n\n    function _shareNotes(address to, uint noteId) public returns (bool) {\n        address noteOwner = msg.sender;\n        Note storage note = notes[noteOwner][noteId];\n        notes[to][notesCount[to]] = Note(notesCount[to],note.text);\n        notesCount[to]++;\n        return true;\n    }\n\n    //Nie wiem czy to działa bo w sumie tylko to napisałem i spanko poszłem :) \n    // Działa :)\n    function editNote(uint _noteId, string memory _text) public {\n        notes[msg.sender][_noteId].text = _text;\n        emit NoteEdited(_noteId); \n    }\n\n\n}\n\n\n\n",
  "sourcePath": "/Users/michalsukiennik/Desktop/cryptonote/contracts/Cryptonote.sol",
  "compiler": {
    "name": "solc",
    "version": "0.5.16+commit.9c3226ce.Emscripten.clang"
  },
  "schemaVersion": "3.4.10",
  "updatedAt": "2022-11-01T10:56:13.422Z",
  "networkType": "ethereum",
  "devdoc": {
    "methods": {}
  },
  "userdoc": {
    "methods": {}
  }
}